:0A0AA200000102020303040405052D
:1002B800E4F513F512F511F510C203C200C202C22B
:1002C8000112041F7E067F008E238F24752B06756E
:1002D8002C1275210675221C752906752A4A752D5A
:1002E80006752E78EE54C070030203B975140075B4
:1002F80015808E168F17C3749A9FFF74069ECF249D
:1003080002CF3400FEE48F0F8E0EF50DF50CF50BC1
:10031800F50AF509F508AF0FAE0EAD0DAC0CAB0B39
:10032800AA0AA909A808C3120A5B5033E517250BC6
:10033800F582E516350AF583E0FFE515250BF5820C
:10034800E514350AF583EFF0E50B2401F50BE435E8
:100358000AF50AE43509F509E43508F50880B78592
:10036800142385152474002480FF740634FFFEC30B
:10037800E52C9FF52CE52B9EF52BC3E5269FF5264E
:10038800E5259EF525C3E5289FF528E5279EF52751
:10039800C3E5229FF522E5219EF521C3E52A9FF5B5
:1003A8002AE5299EF529C3E52E9FF52EE52D9EF514
:1003B8002DD2E843D82090E668E04409F090E65C46
:1003C800E0443DF0D2AF90E680E020E105D205128E
:1003D800082D90E680E054F7F0538EF8C203120A15
:1003E800D0300105120080C2013003F21205FE5020
:1003F800EDC20312097A20001690E682E030E70485
:10040800E020E1EF90E682E030E604E020E0E4124C
:070418000889120AC680C723
:0B0A8C0090E50DE030E402C322D3220D
:1000800090E6B9E0700302013F1470030201BC2442
:10009000FE700302023F24FB700302013914700357
:1000A00002013314700302012714700302012D248E
:1000B0000560030202A4120AC840030202B090E6DF
:1000C000BBE024FE602714603824FD601114602713
:1000D00024067050E52390E6B3F0E524803C120A34
:1000E0008C503EE52B90E6B3F0E52C802DE5259075
:1000F000E6B3F0E5268023E52790E6B3F0E5288017
:100100001990E6BAE0FF1208B5AA06A9077B01EA32
:10011000494B600DEE90E6B3F0EF90E6B4F00202CA
:10012000B002029F02029F120A370202B0120ABEF8
:100130000202B0120AB60202B0120A250202B0127E
:100140000ACA40030202B090E6B8E0247F601514AA
:10015000601924027063A200E43325E0FFA202E4E8
:10016000334F8041E490E740F0803F90E6BCE0549C
:100170007EFF7E00E0D394807C0040047D018002FD
:100180007D00EC4EFEED4F24A2F582740A3EF5830D
:10019000E493FF3395E0FEEF24A1FFEE34E68F8277
:1001A000F583E0540190E740F0E4A3F090E68AF094
:1001B00090E68B7402F00202B002029F120ACC4059
:1001C000030202B090E6B8E024FE60162402600349
:1001D0000202B090E6BAE0B40105C2000202B00229
:1001E000029F90E6BAE0705590E6BCE0547EFF7E38
:1001F00000E0D394807C0040047D0180027D00EC0F
:100200004EFEED4F24A2F582740A3EF583E493FF7F
:100210003395E0FEEF24A1FFEE34E68F82F583E014
:1002200054FEF090E6BCE05480131313541FFFE01B
:10023000540F2F90E683F0E04420F080738060122A
:100240000ACE506C90E6B8E024FE601A2402704F8B
:1002500090E6BAE0B40104D200805590E6BAE0B46A
:100260000202804C803990E6BCE0547EFF7E00E0C4
:10027000D394807C0040047D0180027D00EC4EFE22
:10028000ED4F24A2F582740A3EF583E493FF339583
:10029000E0FEEF24A1FFEE34E68F82F583800D901F
:1002A000E6A080081208E0500790E6A0E04401F0C4
:0702B00090E6A0E04480F09D
:0102B7002224
:030033000204FCC8
:0404FC0053D8EF32B0
:0A0A9700082F0000030F0D470F0A9F
:1007FD00E4F518F519AF19EF25E0242FF8E6FDEF14
:10080D0025E02430F8E6FB7FBA1209550519E519E4
:0F081D0070020518C39404E5186480948040D6D7
:01082C0022A9
:10041F0090E600E054E74410F090E6017443F000DA
:10042F00000090E61274A0F0000000E490E613F0D4
:10043F0000000090E61474E0F0000000E490E61570
:10044F00F000000090E6047480F00000007402F0E9
:10045F000000007406F0000000E4F000000090E6D9
:10046F000274E6F000000090E60374DEF000000076
:10047F0090E670E0F0000000E490E609F000000064
:10048F0043B20F90E61804F00000007411F0000062
:10049F000090E61A7408F0000000E490E671F09006
:1004AF00E672F0F5B475B6FFD2801209300207FD7F
:010AD0002203
:0205FE00D32206
:020AC600D32239
:020AC800D32237
:080AB60090E6BAE0F538D32206
:100A250090E740E538F0E490E68AF090E68B04F034
:020A3500D322CA
:080ABE0090E6BAE0F537D322FF
:100A370090E740E537F0E490E68AF090E68B04F023
:020A4700D322B8
:020ACA00D32235
:020ACC00D32233
:020ACE00D32231
:1008E00090E6B9E0242F600D04701990E604E0FF53
:1008F000430780800890E604E0FF53077F00000074
:07090000EFF08002D322C3D7
:0109070022CD
:10099F00C0E0C083C082D2015391EF90E65D740135
:0809AF00F0D082D083D0E032C9
:1009CF00C0E0C083C0825391EF90E65D7404F0D015
:0609DF0082D083D0E0325B
:1009E500C0E0C083C0825391EF90E65D7402F0D001
:0609F50082D083D0E03245
:1007C700C0E0C083C082852925852A2685268285A3
:1007D7002583A37402F08521278522288528828511
:1007E7002783A37407F05391EF90E65D7410F0D060
:0607F70082D083D0E03245
:1009B700C0E0C083C082D2035391EF90E65D740814
:0809C700F0D082D083D0E032B1
:1004BF00C0E0C083C08290E680E030E72085212530
:1004CF00852226852682852583A37402F085292718
:1004DF00852A28852882852783A37407F05391EFF7
:0D04EF0090E65D7420F0D082D083D0E03222
:010AD10032F2
:010AD20032F1
:010AD30032F0
:010AD40032EF
:010AD50032EE
:010AD60032ED
:010AD70032EC
:010AD80032EB
:010AD90032EA
:010ADA0032E9
:010ADB0032E8
:010ADC0032E7
:010ADD0032E6
:010ADE0032E5
:010ADF0032E4
:010AE00032E3
:010AE10032E2
:010AE20032E1
:010AE30032E0
:010AE40032DF
:010AE50032DE
:010AE60032DD
:010AE70032DC
:010AE80032DB
:010AE90032DA
:010AEA0032D9
:010AEB0032D8
:010AEC0032D7
:010AED0032D6
:010AEE0032D5
:010AEF0032D4
:010AF00032D3
:010AF10032D2
:010AF20032D1
:010AF30032D0
:010AF40032CF
:100600001201000200000040B414041000000102B6
:1006100000010A06000200000040010009022E004D
:1006200001010080320904000004FF0000000705FA
:10063000020200020007050402000200070586020C
:100640000002000705880200020009022E000101D5
:100650000080320904000004FF00000007050202C8
:100660004000000705040240000007058602400024
:10067000000705880240000004030904100343003A
:100680007900700072006500730073000E0345006E
:0C0690005A002D005500530042000000ED
:10090800D281D2807F1E7E00120924A28192D57FD7
:0C0918001E7E00120924C2807F3C7E007D
:0C092400EF4E6007EF1F70F81E80F522F8
:1009FB00D281D280120920C281120920C2807F3C91
:050A0B007E0002092439
:100A1000C281D280120920D281120920C2807F3C7B
:050A20007E0002092424
:100A6C00C281D280120920C2807F3C7E0002092400
:100A7C00D281D280120920C2807F3C7E00020924E0
:080A49001209FBAF031207853F
:0A0A510012090830D502C322D32297
:0A0AAC0012090830D502D322C3223C
:10093000E4F518F5181209FBAF18120785120A51D1
:100940009205120A10300503AF18220518E518C3E6
:0409500094FF40E1EF
:010954002280
:08078500151AA81AA607151A9F
:10078D00A81AE4F6A81AE6FFC364809488502608D8
:10079D00E6FD3395E0FCEDAE04A807088005C333F4
:1007AD00CE33CED8F930E705120A7C8003120A6CDD
:0507BD00A81A0680CF20
:0507C200051A051A22D2
:04072800151A151A6F
:10072C00A81AE4F6A81A08F6A81A08A900C3E764E0
:10073C00809488503BD281D2807F0A7E001209249B
:10074C00A28192D57F0A7E00120924C280A81A3099
:10075C00D510C000E625E0D000F6A81A740146F6C4
:10076C008008C000E625E0D000F6A81A080680B87C
:04077C00A81AE6FFD2
:05078000051A051A2214
:04095500AC07AA053C
:10095900D2051209FBAF04120785120A519205AF9D
:1009690002120785120A519205120A4C9205020ACF
:01097900106D
:04085C00AB07AA0537
:10086000D204120A499204AF02120785120A519269
:1008700004120A10120A499204120728AD07120A3C
:08088000AC9204120A10AF054E
:01088800224D
:1008890090E682E030E004E020E60B90E682E0307A
:10089900E119E030E71590E680E04401F07F147E2D
:0C08A900001205B890E680E054FEF0223A
:10082D0030050990E680E0440AF0800790E680E00C
:10083D004408F07FDC7E051205B890E65D74FFF08C
:0F084D0090E65FF05391EF90E680E054F7F022D1
:0208B500A90791
:1008B700AE2DAF2E8F828E83A3E064037017AD0138
:1008C70019ED7001228F828E83E07C002FFDEC3EB4
:0808D700FEAF0580DFE4FEFF27
:0108DF0022F6
:10097A0090E682E044C0F090E681F04387010000EF
:04098A000000002247
:1005B8008E188F1990E600E054187012E51924017E
:1005C800FFE43518C313F518EF13F519801590E6F5
:1005D80000E05418FFBF100BE51925E0F519E518E0
:1005E80033F518E5191519AE18700215184E60057F
:0605F80012098E80EE22C4
:10098E007400F58690FDA57C05A3E582458370F97C
:01099E002236
:03004300020500B3
:03005300020500A3
:1005000002099F000209E5000209CF000209B700B5
:100510000207C7000204BF00020AD100020AD2008B
:10052000020AD300020AD400020AD500020AD60049
:10053000020AD700020AD800020AD900020ADA0029
:10054000020ADB00020AD200020ADC00020ADD0015
:10055000020ADE00020ADF00020AE000020AE100ED
:10056000020AE200020AD200020AD200020AD20003
:10057000020AE300020AE400020AE500020AE600B9
:10058000020AE700020AE800020AE900020AEA0099
:10059000020AEB00020AEC00020AED00020AEE0079
:1005A000020AEF00020AF000020AF100020AF20059
:0805B000020AF300020AF40044
:0300000002069C59
:0C069C00787FE4F6D8FD7581380206E393
:100A5B00EB9FF5F0EA9E42F0E99D42F0E89C45F0F1
:010A6B002268
:1006A8000202B8E493A3F8E493A34003F68001F2AE
:1006B80008DFF48029E493A3F85407240CC8C33353
:1006C800C4540F4420C8834004F456800146F6DF22
:1006D800E4800B0102040810204080900A97E47E11
:1006E800019360BCA3FF543F30E509541FFEE49317
:1006F800A360010ECF54C025E060A840B8E493A3DE
:10070800FAE493A3F8E493A3C8C582C8CAC583CA08
:10071800F0A3C8C582C8CAC583CADFE9DEE780BEC0
:010AA1000054
:00000001FF
